:020000041000EA
:1000000000B5324B212058609868022188439860DF
:10001000D860186158612E4B002199600221596106
:100020000121F02299502B49196001219960352056
:1000300000F044F80222904214D00621196600F024
:1000400034F8196E01211966002018661A6600F04E
:100050002CF8196E196E196E052000F02FF8012189
:100060000842F9D1002199601B49196000215960AB
:100070001A491B48016001219960EB211966A021F2
:10008000196600F012F800219960164914480160C1
:100090000121996001BC002800D000471248134993
:1000A000086003C880F30888084703B5996A0420EC
:1000B0000142FBD001200142F8D103BD02B5186610
:1000C0001866FFF7F2FF186E186E02BD00000240BE
:1000D000000000180000070000035F00212200005C
:1000E000F4000018222000A00001001008ED00E03C
:1000F00000000000000000000000000074B24E7A12
:1001000000200420F7010010C3010010C5010010F9
:10011000C1010010C1010010C1010010C101001097
:10012000C1010010C1010010C1010010C701001081
:10013000C1010010C1010010C9010010CB01001065
:10014000CD010010CD010010CD010010CD01001037
:10015000CD010010CD010010CD010010CD01001027
:10016000CD010010CD010010CD010010CD01001017
:10017000CD010010CD010010CD010010CD01001007
:10018000CD010010CD010010CD010010CD010010F7
:10019000CD010010CD010010CD010010CD010010E7
:1001A000CD010010CD010010CD010010CD010010D7
:1001B000CD010010CD010010CD010010CD010010C7
:1001C00000BE00BE00BE00BE00BE00BEEFF3058054
:1001D000103800BEF2EB8871BCD70510D8D70510D7
:1001E0003402001090A31AE700201F49086006C8D7
:1001F00081F3088810471D48006800282FD10DA4FE
:100200000ECC002902D000F012F8F9E71849194A7B
:10021000002000E001C19142FCD1174988471749ED
:1002200088471749884700BEFDE701C901C29A42C5
:10023000FBD37047D8D70510C0000020581100200C
:1002400070E80510000004200000042070E805108C
:10025000001004200010042000000000704709482E
:1002600003F018FF0047000008ED00E0000000D098
:1002700078110020EC440020052E0010A10B001086
:10028000C12D00105756000006005250ABB360530A
:1002900028D0011006005250861C030238D00110ED
:1002A000060052505422A29D48D001100500525021
:1002B000DE65F46870E80510F8B5C04610B5064C68
:1002C0002378002B07D1054B002B02D0044800E017
:1002D00000BF0123237010BDE812002000000000C1
:1002E000E0BB0110044B10B5002B03D003490448B8
:1002F00000E000BF10BDC04600000000EC1200206E
:10030000E0BB011010B5042802D11378EF2B00D008
:1003100010BD9378022B05D0032BF9D10A4B002294
:100320001A80F5E75379002B03D0074B00221A807F
:10033000EEE70321100008F0BDFC034B188018887D
:1003400080B219F04FF8E3E7B2440020F0B5D6468A
:100350004F464646C0B504000D001AF011FA0023BE
:100360000122012120001AF030FA80235B020222D0
:10037000012120001AF029FA012301220121200085
:100380001AF023FA20001AF002FA0600D54B98461C
:10039000012203211AF019FA310020001AF004FAA0
:1003A00004230122012120001AF00FFA20001AF084
:1003B000EEF906001AF0EBF9814680277F003B003A
:1003C000012203211AF001FA1123012201214846DA
:1003D0001AF0FBF9494630001AF0E6F930001AF03D
:1003E000D6F981461123012203211AF0EEF949467C
:1003F00030001AF0D9F9310020001AF0D5F90523A0
:100400000122012120001AF0E0F920001AF0BFF9C2
:100410000600B54B012203211AF0D7F93100200064
:100420001AF0C2F906230122012120001AF0CDF9A9
:1004300020001AF0ACF90600AC4B012201211AF0A1
:10044000C4F96A230122012130001AF0BEF93B00F1
:100450000122012130001AF0B8F9310020001AF011
:10046000A3F909230122012120001AF0AEF920008E
:100470001AF08DF906001AF08AF9814643460122E6
:1004800003211AF0A2F90223FF339A460122012127
:1004900048461AF09AF9494630001AF085F93100B9
:1004A00020001AF081F90D230122012120001AF009
:1004B0008CF920001AF06BF980461AF068F90600F2
:1004C0001AF065F981463B00012203211AF07DF9FB
:1004D00013230122012148461AF077F949463000DA
:1004E0001AF062F930001AF052F981461123012204
:1004F00003211AF06AF9494630001AF055F9310023
:1005000040461AF051F9414620001AF04DF93B00DF
:100510000122012120001AF058F9AE6930001BF0C9
:100520003FF982B23300042120001AF087F95346C4
:100530000122012120001AF048F96D4B0722042105
:1005400020001AF07BF981235B00012201212000A9
:100550001AF03BF9674B0822042120001AF06EF9CB
:10056000654B0122012120001AF02FF91223FF33DD
:100570000122012120001AF028F9604B01220121FB
:1005800020001AF022F92B880022012120001AF005
:100590001CF95B4B0122012120001AF016F9AB78FF
:1005A0000022012120001AF010F981239B00012272
:1005B000012120001AF009F9EB7800220521200022
:1005C0001AF003F94F4B0122012120001AF0FDF827
:1005D0006B790022052120001AF0F7F84A4B01221E
:1005E000012120001AF0F1F820001AF0D0F80600DE
:1005F0001AF0CDF880462223002201211AF0E5F8F6
:10060000AA8A2B69042140461AF018F941463000A5
:100610001AF0CAF8310020001AF0C6F83B4B01224C
:10062000012120001AF0D1F820001AF0B0F80600DD
:100630001AF0ADF88046364B012201211AF0C5F8B8
:100640003B000122012140461AF0BFF8414630002C
:100650001AF0AAF8310020001AF0A6F82D4B01225A
:10066000012120001AF0B1F8012300220521200009
:100670001AF0ABF8284B0122012120001AF0A5F84E
:100680002B795A1E93410022052120001AF09DF873
:1006900083239B000122012120001AF096F8AB89E8
:1006A0000122012120001AF090F81C4B01220121A7
:1006B00020001AF08AF8AB790022052120001AF0F8
:1006C00084F8174B0122012120001AF07EF8EB7903
:1006D0000022052120001AF078F8E0BCBA46B146A5
:1006E000A846F0BD24110000021000006E65000055
:1006F000E0BB0110E8BB0110010200000202000093
:1007000003020000050200000602000007020000CC
:1007100009040000090200000A0200000D020000A6
:100720000E020000F0B5DE4657464E464546E0B59F
:1007300083B00400019190469B460CAB1A88924608
:100740001AF01EF800230122012120001AF03DF8C2
:100750007A4B0222012120001AF037F801230122EE
:10076000012120001AF031F820001AF010F80500DD
:100770009022520191461300012203211AF025F81C
:10078000290020001AF010F8042301220121200082
:100790001AF01BF8200019F0FAFF050019F0F7FF16
:1007A0000700802676003300012203211AF00DF89D
:1007B00001230122012138001AF007F8390028002E
:1007C00019F0F2FF280019F0E2FF070001230122CF
:1007D000032119F0FAFF3900280019F0E5FF29007C
:1007E000200019F0E1FF062301220121200019F069
:1007F000ECFF200019F0CBFF0500514B0122012135
:1008000019F0E3FF6A2301220121280019F0DDFF1E
:10081000330001220121280019F0D7FF2900200010
:1008200019F0C2FF092301220121200019F0CDFF98
:10083000200019F0ACFF050019F0A9FF07004B4696
:100840000122032119F0C1FF3300012201213800E8
:1008500019F0BBFF3900280019F0A6FF290020007D
:1008600019F0A2FF330001220121200019F0ADFF91
:10087000344B1B220421200019F0E0FF0223FF3338
:1008800001220121200019F0A0FF2F4B0722042193
:10089000200019F0D3FF80239B00012201212000BA
:1008A00019F093FF0423FF3301220121200019F0E6
:1008B0008CFF264B01220121200019F086FF4346C0
:1008C00001220121200019F080FF214B012201218A
:1008D000200019F07AFF5B4601220121200019F067
:1008E00074FF1C4B01220121200019F06EFF5346BA
:1008F00001220121200019F068FF81239B000122C1
:100900000121200019F061FF0123002205212000B0
:1009100019F05BFF104B01220121200019F055FF57
:10092000019B01220121200019F04FFF03B0F0BC10
:10093000BB46B246A946A046F0BDC0460100010034
:100940006E650000F4BB0110E0BB01100102000065
:10095000020200000302000005020000106053685C
:10096000834205D9C31A013B8B4205D20020704750
:10097000834204D2C31AF7E750600120F7E7002052
:10098000F5E7000010B504F089FB04E02F4B1B884D
:100990009BB2002B0DD12E492E481BF0E9F8002800
:1009A000F4D02D4B9A6A2D4B1A602A481BF0A8F8F8
:1009B000ECE72A4B1868FA21294A4901FFF7CEFFD4
:1009C0000028E8D0274B1B68002B1AD1264A138831
:1009D00026498C4663441380224B01221A60244C22
:1009E000A1232370A03B6370A01C10221E4903F0BA
:1009F000FBFF164B188880B21222210018F000FD70
:100A0000C9E7012B0DD0022B15D0032BE7D1164AD5
:100A1000138816498C46634413800022114B1A60D8
:100A2000DDE7114A138813498C46634413800D4B4C
:100A300002221A60D3E70C4A13880E498C4663449D
:100A40001380084B03221A60C9E7C046B244002055
:100A50003C130020281100200040054040130020D6
:100A60006C390020FC260020F00700201027000031
:100A7000183E0020F0D8FFFF30B58DB007F0F4FD30
:100A80000AAC7C2323703F336370313BA37004F0C6
:100A900023FEFF2103F052FBE17004F01DFEFF2155
:100AA00003F04CFB217104F017FEFF2103F046FB1D
:100AB000617111F0B9FC002801D00DB030BD0130DA
:100AC0000DF05AF823480CF0C3FF23480DF0E4F86A
:100AD00005200CF0CBFF01200AF0D2F915F09EFBA7
:100AE0000AF09AF920000AF0E3F90FF0B5F917F0CF
:100AF0004DFB19F053F903AC184B220023CB23C252
:100B000023CB23C21B681360154DAF229200002136
:100B1000280003F063FF21002800FFF717FC2800DE
:100B200019F06AF90F4CC8220021200003F056FF8B
:100B3000012300930C4B0D4A02212000FFF7F2FD28
:100B4000200019F059F9A721094A4900012018F09D
:100B50000DFCB2E70825000010BC011024BC0110F8
:100B60005C330020383D0020130B00005E040000C1
:100B700054BC011010B5FFF77FFF0748074C4460D5
:100B80000AF05EF8200018F027FC01200CF07EFF30
:100B900008F038F810BDC0467C2C0020050300107A
:100BA00010B504F06FF8034804F066FAFFF7E2FFAF
:100BB000002010BD8509001010B58300084A944636
:100BC00063441C6840226240C024144080225201C9
:100BD00013431C60C000034B9C466044416010BD41
:100BE00004C001400040014080000B4B9C46604423
:100BF00000290DD00823002A0CD0042213430268D8
:100C000053400C221340802252011043036070476E
:100C10000023F0E70022F1E704C00140002909D0D9
:100C20008000094B9C46604480239B0118430223AB
:100C3000036070478000044B9C466044C0239B01C6
:100C4000184302230360F4E704C0014070B5D023C9
:100C50001B061B689D00094C2C59204207D19B00A4
:100C60002043064C18510D2000F0D0F970BD044B04
:100C7000044ACC21044802F0A7F8C046103E0020E8
:100C8000A4BD01107CBE0110D0BD011010B5040040
:100C9000D0231B061B689B000A4A9B5818420BD0A6
:100CA0000D2000F0CDFAD0231B061B6805499B00E0
:100CB0005A58A2435A5010BD034B044AD621044847
:100CC00002F082F8103E00202CBE011058BE011028
:100CD000D0BD0110072303409B00C00899403C3061
:100CE0008000014BC150704700400140F8B507003B
:100CF0000C0016001D00FFF7EDFFFB089B00ED1830
:100D00000720384080008440002E04D080239B01BF
:100D10001D432C60F8BDC0239B011D432C60F9E7E7
:100D200010B5D0231B061B68002B03D0024BFFF726
:100D3000DDFF10BD014BFAE73041014000410140A9
:100D400010B501238340D0221206936293610521DE
:100D5000FFF732FF10BD0000034B1B680220184054
:100D6000431E9841C0B2704700C00640EFF31080A8
:100D700072B6034B1B68002BFBD0BFF35F8F70472D
:100D80002C0100D0BFF35F8F024B00221A6080F36A
:100D9000108870472C0100D0F8B506000C00150033
:100DA000FFF7E4FFE308F718F15C07222240012374
:100DB00093400B4205D1DBB20B433B70FFF7E2FFE0
:100DC000F8BD2100280002F099F8F0B583B00600C4
:100DD000019114001F00FFF7C9FF00E00134BC427D
:100DE0000CD8E308F518F35C0721214001228A4062
:100DF0001A42F3D1D2B21A432A7001E001246442AC
:100E0000FFF7C0FF002C02DB200003B0F0BD019B08
:100E1000002BF9D0089802F071F8000070B50500B9
:100E20000C00FFF7A3FFE308EE18EA5C07210C4073
:100E30000123A340134204D09A433270FFF7A2FF6C
:100E400070BD034B034A2C31034801F0BDFFC0467F
:100E5000B0BE011030BF0110D0BE0110002307E06A
:100E6000054A9A189200BFF35F8F00211160013389
:100E70001F2BF5D97047C04640000034054A107852
:100E8000431CDBB21370172B02D9130010221A7007
:100E90007047C04600080020074B9B681030800058
:100EA0001950BFF35F8FBFF35F8F044B00211960B0
:100EB00082F310887047C04600ED00E0240100D0A6
:100EC0001F23181A7047000010B5091A081F0A4B93
:100ED0009C466144094A914208D8C30706D4401091
:100EE0004005400D064B184380B210BD054B064A25
:100EF000A321064801F068FFFC070000FE0F000078
:100F000000E0FFFF40BF0110CCC1011070BF011015
:100F100010B5091A04394C08090B08D14905490DC7
:100F2000064A11430180064B2343438010BD054B05
:100F3000054AAB21054801F047FFC04600F0FFFF1E
:100F400000F8FFFFCCBF0110A0C1011070BF01105D
:100F500001238340034A10681840431E9841C0B2E1
:100F60007047C04600E100E0002904D0034B186040
:100F7000034B18607047034B1860FBE780E200E00A
:100F800000E100E080E100E010B50123834018009B
:100F9000FFF7EAFF10BD000001238340014A136000
:100FA0007047C04600E200E0024B9B6810308000B2
:100FB000C058704700ED00E070B504000D00EFF37D
:100FC000108672B60C4B1B68002BFBD0BFF35F8FF3
:100FD0002000FFF7E9FF094B984201D0A84205D154
:100FE000320029002000FFF757FF70BD044B054A6F
:100FF0008621054801F0E8FE240100D0CD01001053
:10100000DCBF011000C2011070BF0110F0B5DE4658
:1010100057464E464546E0B589B0814601911500D8
:10102000EFF3108A72B6744B1B68002BFBD0BFF332
:101030005F8F724B0027DF57002F40DB7C00E419E5
:10104000A4006F4824180622A2566C4B1A706D4BF0
:101050009A684B4610339B00D35898461E001B1AC3
:101060002F2B38D9684B98452FD105AE674B33806D
:101070007B009B46D8198000614B98464044023063
:101080006349FFF721FF7080624BB380FF23B37188
:10109000F571019B07935F44BF0047440ECE0EC716
:1010A00001231C43A046524641464846FFF7F4FE42
:1010B00009B0F0BCBB46B246A946A046F0BD564BAF
:1010C000564AD721564801F07FFE564B534ADE213F
:1010D000534801F079FEC04340440C2103F02EF840
:1010E000002912D101239E43B34633000026DA794A
:1010F000AA4211D90621595600290CDB4A00521880
:1011000092001E003E4B9B18F1E7474B434AEA21F1
:10111000434801F059FE1E00002E3AD005AB434A69
:101120001A80813A5A800623F3560293002B17DA6D
:101130003F4805AB9B469880029A9A71DD71019AEF
:101140000792301D2100FFF7BFFEB080B7717B0012
:10115000DB199B002A4FFF185B4607CB07C7A2E7A6
:101160007800C0198000264BC0180430321DB388A7
:10117000D90A1C2907D15B055915023149005118BC
:10118000FFF7A2FED5E72B4B2B4AB121244801F0F3
:101190001BFE05AE1D4B33807B000293D8198000E7
:1011A000174A9046020042440392901C1849FFF7E8
:1011B0008BFE7080039A101D5946FFF785FEB080A4
:1011C0001E4B5A464146521A524153431B0DB371AE
:1011D000F571019A0792029B9C466744BF00474401
:1011E0000ECE0EC7114B5A461380813B538001230C
:1011F0001C43A04657E7C046240100D0D14400203C
:101200000408002000ED00E0CD01001000A1FFFF68
:101210003408002001BDFFFF14C00110E8C1011017
:1012200070BF01103CC0011064C0011001480000F3
:1012300001BD0000D8C00110D8C10110AAAA000049
:10124000F0B5CE46474680B583B006000D00EFF3FB
:10125000108872B6564B1B68002BFBD0BFF35F8F14
:10126000544B9A6834001034A300D758524B9F4215
:1012700007D0AF4200D198E00197504BFB1A2F2BBB
:1012800009D9424639003000FFF706FE03B0C0BC62
:10129000B946B046F0BD3000FFF75AFE8146002146
:1012A0003000FFF771FEBFF35F8FEFF30581002978
:1012B00001D08C4211D10123019C9C430022A368E0
:1012C000AB4212D00622A256002A0DDB53009B1817
:1012D0009B002200394CE418F1E73621384B394A9B
:1012E000FF31394801F070FD2200AB4256D106258E
:1012F0006557002D38DB6B005B199A002F4B9B184C
:101300009A68A260DA79E27106229A56A2719B79F4
:101310005BB2002B0FDA2D48A0806B005B199B009D
:10132000264AD3182A4A1178997115704946300017
:10133000FFF72AFEA5E7201D6B005B199B001F4AE3
:101340009B181A1D9B88D90A1C2907D15B055B15C0
:10135000023359005118FFF7B7FDDDE71D4B1E4A58
:10136000B121194801F030FD002912D1002A0ED018
:10137000FF239371194B9380154A1378A371184B6F
:101380000E49641A644163431B0D1370CEE70A4F84
:10139000F2E7201D1349FFF7BBFDC7E76A21124B97
:1013A000084AFF31084801F00FFD034F69E7C046C6
:1013B000240100D000ED00E0CD0100100408002061
:1013C000F0C00110B8C1011070BF011001BD0000D4
:1013D000D1440020D8C00110D8C1011001BDFFFFC9
:1013E000AAAA00003E08002024C1011010B5032362
:1013F00004009C43064A9446644422681840C00096
:10140000FC3383409A43130081400B43236010BD9B
:1014100000E400E070B5012101432E4BCB1A2F2BC5
:1014200028D8EFF30583002B2BD0EFF3108C72B686
:10143000294A1268002AFBD0BFF35F8F274A0400B5
:10144000244D641B64416243120D54B2244A9268D5
:101450009B00D2588A421BD00022032A32D8530064
:101460009B189B001B49CB189B795BB2A3421FD0F2
:101470000132F2E7C7211B4B1B4A49001B4801F010
:10148000A3FC92211A4B184AFF31184801F09CFC2A
:10149000134A92681749D150174B1A7882711C7001
:1014A000BFF35F8F0C4B00221A608CF3108870BD65
:1014B0000D005300991889006918FF268E710F4A94
:1014C0008A80E9E7D1210E4B074A4900074801F01D
:1014D0007BFCC04604080020240100D0AAAA00001A
:1014E00000ED00E02CC1011084C1011070BF01109B
:1014F00054C10110CD010010D144002001BDFFFFF7
:1015000060C101100022044B02E0044902C3013211
:10151000072AFAD97047C04600E400E08080808046
:1015200010B5FFF7CDFC01000148FFF777FC10BDB7
:10153000E844002000B583B00100064B009305236A
:1015400000220548FFF741FC002801DB1F23181A81
:1015500003B000BD68C10110E844002070B504006C
:101560000E001500FFF78AFC0100200000F006F8CD
:10157000A680E580BFF35F8F70BD0000024B9C46E4
:1015800061448900016070474000003410B50400D8
:10159000FFF774FC01002000FFF7F0FFFF23237129
:1015A000BFF35F8F10BD10B50400FFF767FC0100AB
:1015B0002000FFF7E3FFFF23237100236371BFF3D4
:1015C0005F8F10BD70B505000C00080000F0A4FF8F
:1015D0000949200000F0E4FEFFF750FC074B9C4651
:1015E0006044800068602C75D0231B061B786B75E7
:1015F000A400034BE55070BD0919001040000034F1
:10160000003E00200A4B1A68EFF3108172B613688F
:10161000002BFCD0BFF35F8F054B1B68BFF35F8FC0
:1016200000221A6081F3108840BF0020002170471B
:101630007C41002010B5002922D003681B7B994211
:101640001ED8174B9C466144090183689C4661443F
:101650000C684968002A19D003681B7B9A4215D888
:1016600083680F488446624412019A1810685368D0
:10167000020001208B4201D80ED00020C0B210BD64
:10168000084B094A3C21094801F09EFB054B064ADC
:101690003C21064801F098FBA242EFD8EDE7C04696
:1016A000FFFFFF0F24C40110CCC60110D0C30110EE
:1016B00010B500291ED0037B99421BD84B005B1844
:1016C000033B0468A4466344002919D0002A1DD0B6
:1016D000914221D0002A25D0047BA24222D804685E
:1016E00050008018033820188170197800291FD104
:1016F0001A7010BD104B114A6821114801F064FBAB
:10170000104B114A6F310E4801F05EFB0F4B0E4A31
:1017100070210B4801F058FB0D4B0B4A7121084812
:1017200001F052FB044B054A6821054801F04CFBCF
:1017300041701A70DDE7C04648C401104CC7011063
:1017400064C40110CCC4011028C70110D8C4011012
:10175000E4C4011070B506000D001400002914D077
:10176000002A14D0806873689847002806D02200A9
:1017700029003000FFF79CFF280007E02A00210025
:101780003000FFF795FF200000E0100070BD08005A
:10179000FCE70000F0B583B00500009201930AABAE
:1017A0001C780BAB1F78002C26D003685A7B944220
:1017B00007D10123002B19D1002C3BD1200003B00D
:1017C000F0BD002C0CD01A7B944209D81A68630033
:1017D0001B19033BD3189B78002BEBD00123E9E7BF
:1017E0003E4B3F4A68213F4801F0EEFA3E4B3F4AEC
:1017F00067213F4801F0E8FA03689C7B002CDBD0AE
:1018000012D01A7B94420FD862001219033A196859
:101810008C46624451789973002900D1D973002312
:10182000937053701370C7E72C4B2D4A68212D48D5
:1018300001F0CAFA002C3AD02B681B7B9C4236D8A8
:101840002C4BE3181B01AA6894466344009A1A6063
:10185000019A5A60089A9A60099ADA602E68002CF8
:101860002BD030D0337B9C422DD863001B19033B17
:1018700032689446634400229A705A701A70717BE1
:1018800022003000FFF766FF7073844200D095E7B6
:10189000287D009A019B00F0CBFD061E01D0002F91
:1018A00017D00C9B002B00D188E71E7086E7124BE7
:1018B000124A3C210E4801F087FA114B114AA5212A
:1018C000084801F081FA054B054A6821054801F0F6
:1018D0007BFA2868210001F021F8E2E748C40110F2
:1018E0004CC7011064C40110FCC4011058C701109A
:1018F000D0C30110FFFFFF0F24C40110CCC601109C
:10190000CCC301103CC70110F0B5DE4657464E4629
:101910004546E0B58BB00990002308938200B54B93
:10192000D658370052E0B44BB44A3F21B44801F0D6
:101930004BFAB44BB44A3C21B44801F045FA0029B3
:1019400001D1002869D10021404600F0DDFFA0420E
:1019500019D12A686B6806920793AB689846EB68C2
:101960009A464346002B14D0002C18D03B681B7BB2
:101970009C4214D8631EFA68D35C08931B02184378
:101980003861002015E0A24BA24A8E219F4801F049
:101990001BFAA14B9F4A92219C4801F015FA994BE2
:1019A0009E4A4121994801F00FFA00239A46984631
:1019B00000207B68BFF35F8F00221A6086F31088D7
:1019C0004346002B32D1002800D10CE100F0C8FCC6
:1019D00002000B1EA7DB002000210690079178680B
:1019E000EFF3108672B601680029FCD0BFF35F8F59
:1019F000396888464C7B002CD7D09AD0097B8C4222
:101A000097D8874965182D01B9688C4665442868C0
:101A10006968801A9941002991DD2A686B680998E4
:101A200000F006FD00239A469846C2E7089B1B0279
:101A30002343994651461800C04705000E007A68B6
:101A4000EFF3108B72B6136859424B41D9B2002B99
:101A5000F9D1BFF35F8F002E1EDB002E46DD3B6900
:101A6000002B47D04B456DD100F07AFC02000B1ED5
:101A70006EDB52197341002B70DB002B72DB0021EF
:101A80000491013103910294514601914146009124
:101A90003800FFF77FFE4CE03B69002BDDD04B4563
:101AA00014D1069A079B521BB341002B14DB002B69
:101AB00016DB0021049101310391029451460191FA
:101AC000414600913800FFF765FE32E0554B514A20
:101AD000A1214E4801F078F901225242524BE6E72B
:101AE000454B464A3F21464801F06EF9002E01D190
:101AF000002DB4D13B68002C50D05A7B944237D192
:101B0000012100294AD1DA7B002A4DD19A7B002A93
:101B100003D1DA7B002A5AD19C73DC73002C5CD091
:101B20003B681B7B9C4258D8FA68013C135D01332B
:101B3000135500233B617A68BFF35F8F13608BF30B
:101B4000108843E7374B334AA421304801F03CF971
:101B5000294B2A4A3F212A4801F036F901225242F4
:101B6000314B8AE7244B254A3F21254801F02CF9C7
:101B7000002C0DD01A7B94420AD862001219033A45
:101B80001868844662449278002ABAD00121B8E7E6
:101B9000264B274A6821274801F016F9264B274A89
:101BA000F621244801F010F9002A0AD0197B8A4254
:101BB00007D851008A18033A19688C466244547059
:101BC000A4E71A4B1A4A68211A4801F0FDF81C4B89
:101BD0001A4AFB21174801F0F7F80A4B0F4A412136
:101BE0000A4801F0F1F80BB0F0BCBB46B246A9467A
:101BF000A046F0BD003E00208CC2011098C6011026
:101C0000A8C2011024C40110CCC60110D0C3011019
:101C100024C50110B0C601103CC5011004C7011055
:101C2000FFFFFF0F48C50110FFFFFF7F48C40110F1
:101C30004CC7011064C4011084C5011018C70110FD
:101C4000A8C5011010B50C4B5B68002B04D00A210D
:101C50000A48FFF793FC10BD074C2300084A1021E7
:101C6000206800F043FD032000F056FB0321200014
:101C7000FFF7A8FCEBE7C0464C0800207C410020A1
:101C80003516001010B5064B5B68002B01D00448D8
:101C900010BD044B044A5E21044801F095F8C0468B
:101CA0004C080020BCC50110ECC60110D0C30110C7
:101CB00070B50500182002F03BFE040002000C493C
:101CC000280000F01AFD20601021280002F04EFECE
:101CD000A0600121280002F049FEE060012000F030
:101CE0002FFB01002000FFF76DFC200070BDC046F7
:101CF0003516001010B50400164B98421DD0037D18
:101D00009900154A8A5882421DD19B00124A00212F
:101D10009950006800F007FD207D002100F040FB95
:101D2000207D00F005FBE06802F040FEA06802F0B4
:101D30003DFE200002F03AFE10BD084B084AD321B8
:101D4000084801F041F8084B054AD721054801F041
:101D50003BF8C0464C080020003E002024C1011082
:101D6000D8C60110D0C30110E0C50110F0B5DE46A1
:101D700057464E464546E0B58BB0804616001F00DC
:101D8000149B9A46159B994616AB1B789B461F23BE
:101D900002AA9446634400221A702BE0002809D05E
:101DA00042461268127B904204D8421E4146C968DE
:101DB0008A5C41E0404B414A4121414801F004F82E
:101DC00007984CE0361BAF41002F07DB002F11DADC
:101DD0003C4B3D4A3F213D4800F0F6FF012676424C
:101DE0003B4FF3E7374B384A3F21384800F0ECFFD0
:101DF000002F4FDB43465A68EFF3108472B6136826
:101E000059424B41D9B20791002BF8D1BFF35F8FF4
:101E10001F3302AA9446634404930023039302935E
:101E20004B4601935346009332003B004046FFF778
:101E3000B1FC031EB2D1020041464968BFF35F8F77
:101E400000250D6084F31088002B29D01F2302A9E0
:101E50008C4663441B78002BB2D112021043002B36
:101E600020D05B46002B1DD04946D04704000D0012
:101E700003000B431DD00029A4DB00F071FA06001B
:101E80000F1EAFDB36196F41002FB1DA0126764203
:101E90000F4FADE70B4B0C4A3F210C4800F094FF6D
:101EA000012040420BB0F0BCBB46B246A946A0465A
:101EB000F0BD0798F6E7C04624C4011004C701101E
:101EC000D0C301108CC2011098C60110A8C2011025
:101ED000FFFFFF7FF0B589B005001F216944002096
:101EE00008706868EFF3108772B601680029FCD0AB
:101EF000BFF35F8F1F2169440491012103910021E9
:101F000002910F9901910E9900912800FFF742FC70
:101F10000400031E12D106006A68BFF35F8F002120
:101F2000116087F31088002B1CD01F236B441B7893
:101F3000002B13D13002204309B0F0BD002807D098
:101F40002A68127B904203D8421EE9688E5CE3E760
:101F5000064B074A4121074800F036FF287D00F074
:101F6000FBFAE7E701204042E6E7C04624C401103F
:101F700004C70110D0C30110F8B50400002900D136
:101F800062E04268EFF3108572B61368584243412D
:101F9000D8B2002BF9D1BFF35F8FCBB22268567B4A
:101FA000B3421BD10120002848D0206988422BD0A1
:101FB000090AC9B2002B2ED02068007B83422AD8A0
:101FC000581EE668305C88422BD000206368BFF35F
:101FD0005F8F00221A6085F31088F8BD002B0DD0AA
:101FE000167BB3420AD85E00F618033E1768BC465B
:101FF0006644B678002ED6D00120D4E7134B144A9D
:102000006821144800F0E0FE2C21134B134AFF31E5
:10201000134800F0D9FE134B134A4121104800F039
:10202000D3FE1900100000F079FC0028CED19921D0
:102030000E4B0A4A49000A4800F0C6FE23698B424B
:10204000C4D100232361C1E70020C6E748C40110C2
:102050004CC7011064C4011008C6011080C60110ED
:10206000D0C3011024C4011004C701102CC60110F4
:10207000407D7047F0B587B006000F00EFF3058391
:10208000002B1FD106246442E517A4197D418D421F
:1020900002D803D1844201D900240025002D14DB8D
:1020A0000494059500F05CF902000B1E13DBA41AE2
:1020B0009D41002D17DC14D03000390000F05CF990
:1020C00007B0F0BD234800F019FF234B234A3F21FE
:1020D000234800F079FE204B204A3F21204800F0A1
:1020E00073FE002CE8D0FFF7CDFD0023029301938F
:1020F0001C4B0093049A059BFFF738FE002818DA62
:10210000DAE7002300E00023002BD5D1164B1A6834
:10211000EFF3108172B61368002BFCD0BFF35F8F12
:10212000114B1B68BFF35F8F00221A6081F3108888
:1021300020BF0499059A0D4B5B6A9A42E3D80B487D
:10214000806A884203D29A42DBD00123DCE7012374
:10215000DAE7C04630C601108CC2011098C60110E3
:10216000A8C20110051600107C4100200040054067
:1021700070B504000D0000F0F3F802000B1E0ADB3E
:10218000200029008018594100290ADB00290CDBB6
:10219000FFF770FF70BD084B084A3F21084800F068
:1021A00013FE012040420749F0E7034B034A3F2159
:1021B000034800F009FEC0468CC2011098C6011009
:1021C000A8C20110FFFFFF7F10B5FA229200002382
:1021D000002102F049FBFFF7CBFF10BD70B584B0C2
:1021E00005000C00EFF30583002B1ED1FFF74AFD1D
:1021F000002302930193224B00932A002300FFF750
:10220000B5FD061E23DD20BFFFF73CFD3100FFF7C3
:10221000B3FE1C4B5B6A9C422DD81A4A926AAA42B2
:102220002CD29C4225D0012026E0164B5B6A9942B5
:1022300009D8144A926A824207D2994201D00120F9
:102240001AE0002018E0002016E0012014E00D4BF9
:102250005B6A9C4209D80B4A926AAA4207D29C4206
:1022600001D0012008E0002006E0002004E0012069
:1022700002E0002000E0002004B070BD0120FBE778
:10228000051600100040054070B5EFF305801038CA
:10229000EFF3108C72B61A4B1B68002BFBD0BFF308
:1022A0005F8F01221300834016494B6316490B6070
:1022B000164909780C00C440224214D0114A546ACD
:1022C0008200134D5259944206D38200114C125988
:1022D00099430E4B197007E00A4A031D9B00995859
:1022E0009950002200E00022BFF35F8F044B0021D1
:1022F00019608CF31088002A00D0904770BDC0464A
:10230000280100D0004005403C700540E744002013
:10231000984200204C13002010B50100024A0348E7
:10232000FEF73AFD10BDC04678C70110CA44002030
:1023300010B501000148FEF771FD10BDCA44002030
:1023400000B583B00100044B00930323002203482F
:10235000FEF73BFD03B000BD9CC70110CA4400203E
:10236000044B5B6A034A906A1900536A9942F9D197
:102370007047C04600400540084B5B6A01E0074BD0
:102380005B6A8B42FBD301E0044B5B6A8B4203D157
:10239000024B9B6A8342F7D37047C046004005401A
:1023A00070B504000D00EFF3108672B61B4B1B686E
:1023B000002BFBD0BFF35F8F002D1CD02000FEF759
:1023C000F3FD174B83420BD019002000FEF7F4FDFC
:1023D00001212000FEF7D8FD0123A340114A13601C
:1023E000A400114BE550BFF35F8F0C4B00221A6025
:1023F00086F3108870BDA2000B4B0021D150012242
:10240000A2400A490B7893430B7005492000FEF760
:1024100017FF00212000FEF7B7FDE4E7280100D0F8
:1024200089220010386005404C130020E74400204A
:10243000F0B5DE4600B584B00400150001921E0020
:102440000293FFF78DFF03958E4202D84ED185424D
:102450004CD9EFF3108B72B6274B1B68002BFBD0C7
:10246000BFF35F8F254A17780125A540EBB23B43A8
:102470001370234B5D63221D92000199D150A2007D
:102480002049029850501B6A2B4212D11C4B1B6CE6
:102490002B4208D00020BFF35F8F174B00221A6039
:1024A0008BF3108823E0184B184AC521184800F018
:1024B0008BFCFFF755FF8E4214D802D1039B834259
:1024C00010D80E4B1B78BB420ED00D4B1D625D63C6
:1024D0001F2004400123A3400E4A1360074B1F70C6
:1024E0001E38D8E70020D6E70120D4E7012004B049
:1024F00080BCBB46F0BDC046280100D0E7440020A8
:102500000040054098420020B0C7011034C80110B7
:10251000D4C7011080E200E0EFF3108C72B60B4BD1
:102520001B68002BFBD0BFF35F8F01238340084A59
:10253000136208490A789A430A70BFF35F8F034B0E
:1025400000221A608CF310887047C046280100D022
:1025500000400540E7440020EFF3108C72B60B4BAF
:102560001B68002BFBD0BFF35F8F01238340DAB2DF
:102570000749087802430A70BFF35F8F034A0021BE
:1025800011608CF31088034A13607047280100D053
:10259000E74400203C60054010B500291ED0037BB5
:1025A00099421BD84B005B18033B0468A446634464
:1025B000002919D0002A1DD0914221D0002A25D00F
:1025C000047BA24222D804685000801803382018E7
:1025D0008170197800291FD11A7010BD104B114A53
:1025E0006821114800F0F0FB104B114A6F310E4882
:1025F00000F0EAFB0F4B0E4A70210B4800F0E4FBA1
:102600000D4B0B4A7121084800F0DEFB044B054AD4
:102610006821054800F0D8FB41701A70DDE7C0461C
:1026200048C4011058C9011064C40110CCC4011081
:1026300044C90110D8C40110E4C4011070B50600EB
:102640000D001400002914D0002A14D0806873688B
:102650009847002806D0220029003000FFF79CFF91
:10266000280007E02A0021003000FFF795FF200036
:1026700000E0100070BD0800FCE7000010B500236A
:10268000437301338373037BC3730123027B9A4239
:1026900014D9002B0CD0027B934209D85A00D218CF
:1026A000033A01688C4662440133DBB25370EDE7B4
:1026B0000B4B0C4A68210C4800F086FB002A09D01D
:1026C000924207D8016853009A18033A8A180023E7
:1026D000537010BD024B034A6821034800F074FB9D
:1026E00048C4011058C9011064C4011010B5017329
:1026F00042608360FFF7C2FF10BDF8B505000E0011
:1027000017001021012002F031F9040003212800F4
:1027100002F02CF920603B00320029002000FFF776
:10272000E5FF2000F8BD10B50400006802F03EF996
:10273000200002F03BF910BD70B50400081E00D166
:1027400070BD002934D0237B994231D84B005B18EF
:10275000033B2268944663445A78002AF0D02DD077
:10276000237B9A422AD853009B18033B21688C464E
:1027700063445D7800215970002825D0237B98425E
:1027800022D843001B18033B21688C466344002178
:10279000597001002000FFF751FF060029002000BA
:1027A000FFF7CAFF020031002000FFF747FFC7E72D
:1027B000084B094A6821094800F006FB054B064A08
:1027C0006821064800F000FB024B034A68210348D9
:1027D00000F0FAFA48C4011058C9011064C401108D
:1027E00070B505000C00160000292FD034D0037BF3
:1027F000994231D84B005B18033B0268944663440E
:102800005A78002A2ED19A78002A31D11978FFF708
:1028100093FF0300002E0AD0EA7B002A2ED1AA7B68
:10282000002A03D1EA7B002A3BD1AC73EC73002B66
:102830003DD1002C4FD02B7B9C424CD82B686100A3
:102840000C19033C1C190023637070BD254B264AEC
:102850003821264800F0B8FA254B264A6821264838
:1028600000F0B2FA254B204A3A21204800F0ACFA99
:10287000234B1D4A3B211D4800F0A6FA002A0AD02E
:10288000297B8A4207D851008A18033A29688C4666
:1028900062445470C3E7164B164A6821164800F08C
:1028A00093FA184B104A4221104800F08DFA002B81
:1028B0000BD02A7B934208D843001B18033B2A689D
:1028C0009446634400229A70B3E7094B094A682191
:1028D000094800F079FA064B064A6821064800F0DC
:1028E00073FAC04650C8011030C9011058C8011011
:1028F00048C4011058C9011064C40110ACC80110CB
:10290000D4C80110A8C5011070B504000A00457BA9
:102910002900FFF765FF6073280070BD70B50400E3
:10292000002967D0437B8B420ED0002911D0037B56
:1029300099420ED84B005B18033B0268D01883788D
:10294000002B0CD1002056E00121FFF7DDFF012014
:1029500051E0294B294A6821294800F035FA002B1B
:1029600020D0227B93421DD85A00D318033B226803
:10297000D2182568EB5C8B421AD0002B1BD0227B2F
:10298000934218D85A00D318033B2268D2185378C0
:102990008B4216D0002BF0D11A4B1B4A6B211B48DF
:1029A00000F012FA144B154A6821154800F00CFA91
:1029B0004378137007E0104B104A6821104800F06C
:1029C00003FA437853700023837043700122200080
:1029D000FFF706FF0200617B814205D02000FFF770
:1029E0002DFE6073012006E0094B074A712107485C
:1029F00000F0EAF9002070BD48C4011058C9011068
:102A000064C4011060C1011018C9011058C8011038
:102A1000F8C80110F8B5DE4657464E464546E0B5C3
:102A200005000F0092460A9A934250D31A0E91461F
:102A30001E020A9A00233000494601F0BDFB804681
:102A40006C006419A400304B9C4664446368834264
:102A500000D260602B1FDBB29B46012B3DD9C02307
:102A60009B012343802212011A60AB00274A995828
:102A7000002907D0506901F061FB431C5800C018C1
:102A80000338FDD253465A0123685A40E0231A40C6
:102A900080235B0123431A605A46012A28D98023E8
:102AA0009B012343802212011A6043466360424621
:102AB00000233000494601F07FFBAD00134B585115
:102AC0000120F0BCBB46B246A946A046F8BD104B5B
:102AD000104A3321104800F077F9012FBFD1C023ED
:102AE0009B01234303221A60A368DB07FCD5C9E7D7
:102AF0002168794003220A401A60A2680123BB4082
:102B00001342FAD0CBE7C046008000407C1D002075
:102B100064C90110D8C9011078C9011030B583B05B
:102B20000C2000F011F9FEF717F900280DD0002352
:102B300004E099002D4A2E4888500133092BF8D91A
:102B40002A4B2C4A5A6203B030BD2B4B00229A67A5
:102B500000F002F9294B01221A60274B5B6C012B14
:102B6000FBD1274B03221A60234B9B6B012BFBD11C
:102B7000013300930433234A0121234800F054F821
:102B800005230093214A0121214800F04DF8214BF3
:102B90000093002202210420FFF73CFF1E4D009508
:102BA0002B00002201210520FFF734FF104C009478
:102BB0002300002200210720FFF72CFF00942300B0
:102BC000002200210820FFF725FF0A4B0093230075
:102BD000002200210920FFF71DFF00952B00002295
:102BE00000210620FFF716FFADE7C0467C1D002040
:102BF000006CDC021BB70000008000403CB00040CD
:102C000030B00040002F685900800240008C864799
:102C100000C00240001BB700405973078000014B01
:102C2000C05870477C1D0020F0B5C64600B50400B2
:102C30000E0017001D00374801F080FA8046364B21
:102C4000FA18364B9A4239D80100380001F076FA6A
:102C50000200103A98235B009A4235D86B1E062B6F
:102C600038D8069B013B062B34D83F09474537D35C
:102C70002D04069B1A0315432368002B36DB284BD3
:102C80009C4244D080225201264B1A60264B1A6087
:102C9000264B9B6811009943FAD12660A060231D42
:102CA000C02292011A43212313602368002BFCDA0F
:102CB000E5600823136080BCB846F0BD1C4B1D4A7C
:102CC00011211D4800F080F81C4B1A4A19211A489E
:102CD00000F07AF81A4B174A1C21174800F074F8D4
:102CE000184B144A2321144800F06EF822683F2341
:102CF0001340B342C3D1A3681B051B0D8342BED151
:102D0000E368EE22D2021340AB42B8D1D3E780226F
:102D10009201B9E7001BB70080E84BD380F8A932D5
:102D200000C0024000E0004000F0004000C0004051
:102D3000E8C9011028CB011048CA0110A4CA01102B
:102D4000C0CA01100CCB011080239B000343014A31
:102D5000D362704700800540074BAA2212011A6017
:102D60002132FF32DA60054B054A1A60024B5B687C
:102D7000002BFBDA7047C046004002400060024072
:102D800000B0FA0000BEFDE703000A4A1268002AFC
:102D900008D0084A1068C318074A9A4206D3054A61
:102DA00013607047034A05491160F2E70120404271
:102DB000F7E7C0462830002000000420EC44002043
:102DC00010B5FFF7DFFF000010B582B00C0019004E
:102DD000002A0CD0084B002A0BD00192009323004C
:102DE0000200064801F042FF0120FFF7CBFF044B31
:102DF000F1E7034AF1E7C04634CB011044CB0110A0
:102E000060CF051070B52B4B2B4A1A602B4B2C4A08
:102E10001A602C4B9A682A4B9343FAD12A4C01E052
:102E200008CC9847294B9C42FAD3FFF777FE234BF7
:102E3000274A1A60234B9B68DB43DB01FAD1254B01
:102E400040229A675A671A67DA66234C09E0234BD7
:102E5000234A87212348FFF7B7FF2000FEF796FBA0
:102E60000834214B9C4209D22368002BF5D0012B5A
:102E7000EDD12000FEF797FB0834F2E71B4CA16868
:102E80001B4DC022280001F0AFFDA560EFF30583C4
:102E9000002B00D000BEFDF7E1FFFEF733FBFEF78D
:102EA000D1FE144C01E008CC9847134B9C42FAD356
:102EB00070BDC04600E00040BFCDFBFE00F000400A
:102EC000FE7F3C0000C00040401100205011002057
:102ED000FFFFFF0100F001402811002074CB01101A
:102EE00014CC011094CB01104011002000ED00E043
:102EF0000000002050110020581100200FB400B530
:102F000083B0084801F082FE049B002B07D005A97E
:102F10000191180001F08AFE034801F077FE0120BC
:102F2000FFF730FFF4CB0110C0AE051010B501481B
:102F3000FFF7E4FF04CC0110704710B5002802D061
:102F40000B684968984710BD0100002007E0830026
:102F50001B185B00501C08601078C01830380A68D5
:102F60001378303BDBB2092BF1D97047F0B5DE4660
:102F700057464E464546E0B583B093461F000C9B2E
:102F80009A460D9C0E9B99460F9B9B0703D0B84613
:102F90000F00060022E00192A34688464E46B9463D
:102FA0000700B44207D2551C4B4641462020B84783
:102FB00001342A00F5E73D004F465C46019B9B46E5
:102FC000B1464646B84637002E0007E0013C551C86
:102FD0005346185D43463900B0472A00002CF5D10E
:102FE00035003E0047460F9B9B0707D4100003B0F7
:102FF000F0BCBB46B246A946A046F0BDB0464E4620
:10300000B9462F005D46531BB342EFD2541C4B46CA
:1030100041462020B8472200F5E7F0B5CE464746A6
:1030200080B585B0944698460C9D0D9C0EAB1B78E0
:103030009946109A119B129EB7071CD4002B0CD0F6
:10304000F7070AD54F46002F02D10C37374204D07C
:10305000013B02E030272F550134944201D21F2C4E
:10306000F8D9F70707D59C4205D21F2C03D8302783
:103070002F550134F5E7F70615D5770505D4002C53
:1030800003D0944224D09C4222D00F9A102A2BD0F5
:103090000F9A102A30D00F9A022A35D01F2C02D84E
:1030A00030222A5501341F2C05D84A46002A31D037
:1030B0002D222A550134039602930194009543462C
:1030C0006246FFF753FF05B0C0BCB946B046F0BD3D
:1030D000621E012C06D00F9F102F01D01400D4E7E0
:1030E000023CD2E71400D0E7B206D1D41F2CCFD8CF
:1030F00078222A550134D1E7B206CCD51F2CCAD884
:1031000058222A550134C9E71F2CC7D860322A55E6
:103110000134C3E7720703D52B222A550134CAE7CD
:103120003207C8D520222A550134C4E7F0B5DE465F
:1031300057464E464546E0B593B081468A460892CA
:1031400009931CAB10CB1B789B461E9D219B984678
:10315000002C03D1102342469A4390468023DB0083
:1031600046461E4042461A4212D0002C22D000266B
:103170000EE03033D9B2771C0AAB995529002000F4
:1031800000F0DCFFAC4216D31F2F14D83E00040021
:103190002900200000F0D2FFCBB2092BE9D942462A
:1031A000920605D54121C918C9B20A39C9B2E2E768
:1031B0006121F8E7270043460693209B05931F9B58
:1031C000049303955B46029301970AAB0093099B16
:1031D000089A51464846FFF720FF13B0F0BCBB46A3
:1031E000B246A946A046F0BDF0B5DE4657464E466B
:1031F0004546E0B595B0089009910A920B931E9E42
:103200001F9C20AB1B789B46229B9946239D269BA7
:103210009A463300234303D1103352469A439246D1
:103220008023DB0057461F4052461A4219D0330014
:1032300023432DD0002714E03033DAB27B1C9846AC
:103240000CABDA554A462B003000210000F0B4FFE9
:10325000A5421FD819D043461F2B1BD8474606004E
:103260000C004A462B003000210000F0A5FFD3B22D
:10327000092BE1D95246920605D54122D218D2B285
:103280000A3AD2B2DAE76122F8E7B145E3D901E0C0
:103290000023984653460693259B0593249B04934D
:1032A0004B4603935B460293434601930CAB00935A
:1032B0000B9B0A9A09990898FFF7AFFE15B0F0BC6E
:1032C000BB46B246A946A046F0BD0000F0B5DE46BA
:1032D00057464E464546E0B591B083468A460C9225
:1032E00098461A9C08941B9D099522002B002000EB
:1032F000290001F0DCF9002800D0E5E0012252426B
:10330000D74B2000290001F0CDF9002800D0DBE0E8
:1033100001225242D34B2000290001F0ADF90028D0
:1033200000D0D1E000220023089E3000099D290032
:1033300001F0A2F9002800D0DDE008980999069074
:1033400007918023DB001E9A1A400D921E9A1A42A2
:1033500001D106231C930698079904000D000A006A
:103360000600024300D1D1E0080D4005400DBE4CDF
:10337000A44660440A03120BBC4B13431F0001F028
:10338000A9F9BB4ABB4B01F038F9BB4ABB4B01F072
:1033900015F904000D000022B94B3000390001F08E
:1033A00008F9B84AB84B01F028F902000B002000D8
:1033B000290001F003F901F0A5F9814601F08AF92D
:1033C00004000D00B14AB24B01F017F90022B14BD5
:1033D00001F0F4F801F096F90600AF4AAF4B200077
:1033E000290001F00AF904000D00300001F072F923
:1033F000AB4AAC4B01F001F902000B0020002900A0
:1034000001F0D7F804000D0002000B0001F0F5F800
:103410000A900B91A44BF31800261F0522002B00E5
:103420002000290001F0CAF80E900F9122002B0015
:1034300000208021C90501F0BCF804000D00002225
:103440009A4B0A980B9901F0BEF80022984B01F0B4
:10345000B5F802000B000A980B9901F0B4F80022AD
:10346000944B01F0ABF802000B000A980B9901F0A5
:10347000AAF802000B002000290001F09FF80200CA
:103480000B000E980F9901F09EF80022774B01F087
:1034900095F832003B0001F0B0F806000F00040080
:1034A0000D00069A079B01F0FDF8002830D001239B
:1034B0005B429C46E14400227D4B3000390001F024
:1034C00082F804000D0023E01E9B04931D9B0393D0
:1034D0001C9B0293089A099B0092019343460C9A05
:1034E0005146584600F0FCF811B0F0BCBB46B2465D
:1034F000A946A046F0BD0023002406930794069633
:1035000080231B069C46654407951AE700239946CD
:103510004B466333C62B1ED804261E9B1B0526D59F
:103520002B0023430FD0644A644B0698079901F09F
:10353000B1F8002879D00022614B0698079901F074
:103540009BF8002871D01C9B4B4506DD4A46981A13
:10355000431E1C9303E00526DFE700231C93802312
:10356000DB001E9A1A431E920026002399461D9BDB
:103570009E4264D29F1B02231E9A1A400A921E9AF0
:10358000134202D0002E00D000274B46002B07D05C
:1035900022002B000698079901F015F80690079174
:1035A000002200230898099901F066F8002848D104
:1035B000444B1E9A1340049303971C9B0293069B53
:1035C000079C0093019443460C9A5146584600F0DC
:1035D00087F8002E00D187E71E9B9B063DD5452529
:1035E000441C4346020051462800D8474B46DA1790
:1035F0009B18534005220592013E04960022039237
:103600000A3202924A46D00F0190009343462200AC
:1036100051465846FFF78AFD0A9B002B00D163E70D
:1036200002005F460C9E1D9D54E01C9B002B9ED00B
:103630000D9B002B9BD01C9B013B1C9397E7002705
:1036400099E7069C079D22002900802000068446F9
:1036500061440B0006920793AAE76525C0E7C046C0
:10366000FFFFEF7FFFFFEFFF01FCFFFF0000F03FD8
:10367000FB799F501344D33FB3C8608B288AC63F61
:103680000000F83F61436F63A787D23F71A37909B8
:103690004F930A400000E03F1655B5BBB16B0240A6
:1036A000EF39FAFE422EE63FFF03000000002C40F7
:1036B00000002440000018402D431CEBE2361A3F66
:1036C00080842E41FFF7FFFF541C434651462020C3
:1036D000B8472200931BAB42F6D3100004E7C04664
:1036E000F0B5DE4657464E464546E0B595B00690E5
:1036F000079193469946209F1E9A1F9B1000190020
:1037000000F0D5FF002831D101225242BF4B1E9854
:103710001F9900F0B1FF002837D101225242BC4B63
:103720001E981F9900F0BEFF00283DD10022B94B22
:103730001E981F9900F0B6FF002850D10022B64B0A
:103740001E981F9900F098FF002848D100220023FE
:103750001E981F9900F090FF002850D10023984632
:10376000229B5B0500D4B6E0002458E0229B039323
:10377000219B029303230193A84B00934B465A4687
:1037800007990698FFF7F2FB0EE1229B0393219B1A
:10379000029304230193A24B00934B465A46079988
:1037A0000698FFF7E3FBFFE00423229A1A402299D0
:1037B0000B4210D09B4B002A0FD004222299039178
:1037C00021990291019200934B465A460799069817
:1037D000FFF7CCFBE8E0944BEDE70322EEE7229BFA
:1037E0000493219B039302971E9B1F9C00930194BB
:1037F0004B465A4607990698FFF768FDD4E01E9A93
:103800001F9B0020002100F0D4FE1E901F91012379
:103810009846A5E70CAB30221A55013F01341F2C06
:1038200001D8092FF6D81E981F9900F06BFF0500EC
:1038300000F050FF02000B001E981F9900F0B9FE27
:10384000FA007A4B9B181A685B680A920B9300F097
:10385000D4FE0890099100F079FF060000F036FFD1
:1038600002000B000898099900F0A3FE0890099146
:1038700000226F4B00F016FF00282ED001363000DA
:1038800000F024FF02000B000A980B9900F0FAFEEA
:10389000002801D001350026002F2CD1280000F08F
:1038A00019FF02000B001E981F9900F082FE06000F
:1038B0000F0000225E4B00F0DFFE002846D1002200
:1038C0005B4B3000390000F0EDFE00283ED1EB07E5
:1038D0003CD501353AE0062746E70022544B0898CC
:1038E000099900F0C9FE0028D6D1002E01D0F307B7
:1038F000D2D50136D0E7AA461F2C11D8013F0A21A4
:10390000300000F01BFC651C30310CAB19550A214E
:10391000300000F013FC092E0ED906002C00EBE756
:1039200055461F2C0CD87B1E002F09D00CAA302125
:1039300011551F000134F4E72B0055461C00F0E739
:103940001F2C03D80CAB2E221A5501341F2C10D873
:103950000A21280000F0CAFB661C30310CAB195557
:103960000A21280000F0C2FB051E01D03400EDE75B
:1039700034000323229A1340012B1CD01F2C06D89D
:103980004346002B32D00CAB2D221A550134229B1A
:103990000393219B029301940CAB00934B465A4630
:1039A00007990698FFF7E2FA15B0F0BCBB46B2469D
:1039B000A946A046F0BD219B002B13D04346002B07
:1039C00002D10C3313420FD0219B013B21931900EC
:1039D00003E00CAB30221A5501348C42CED21F2C9E
:1039E000F7D9CBE72199F8E72199F6E7229B5B0706
:1039F00004D50CAB2B221A550134C8E7229B1B07B8
:103A0000C5D50CAB20221A550134C0E7FFFFEFFFEC
:103A1000FFFFEF7F65CDCD4165CDCDC130CC01102D
:103A200034CC011028CC011024CC011020CE011080
:103A30000000E03FF0B5DE4657464E464546E0B54D
:103A400093B082468B4690461193002900D1EBE259
:103A500000275546119B1878002800D1E7E2252859
:103A600009D07C1C43463A005946A847119B0133B4
:103A700011932700EEE7013311930024119A117876
:103A80000B00203BD8B2102803D88300D048C3587D
:103A90009F460B00303BDBB2092B2CD92A292FD0B3
:103AA00000230A93119B1A782E2A39D000239A46B4
:103AB000119A1378683BD9B2122976D88B00C54980
:103AC000CB589F4601231C4301321192D6E70223B3
:103AD0001C4301321192D1E704231C43013211929D
:103AE000CCE708231C4301321192C7E710231C4383
:103AF00001321192C2E711A8FFF726FA0A90D1E726
:103B00001C9B1A1D1C921868002804DB0A90119B4C
:103B100001331193C6E702231C4343420A93F6E79D
:103B20008022D20014435A1C11925A781300303B61
:103B3000DBB2092B04D92A2A07D000239A46B7E71B
:103B400011A8FFF701FA8246B2E71C9B1A1D1C92CE
:103B50001868002804DB8246119B01331193A7E704
:103B60000020F8E780235B002343511C1191527819
:103B70006C2A01D01C0018E0C0239B001C430131BB
:103B8000119112E080232343511C11915278682A2D
:103B900001D01C0009E0C0231C430131119104E055
:103BA00080235B001C4301321192119B18780300A3
:103BB000253BDAB2532A00D92CE29300864AD35827
:103BC0009F4680239B001C4301321192EDE7802326
:103BD0005B001C4301321192E7E7782809D058288E
:103BE00038D06F2838D0622838D010239C430A265A
:103BF00000E01026582833D0692803D0642801D06B
:103C00000C229443630501D50122944369282AD0EC
:103C1000642828D0A30500D59FE0E30500D5B8E0CF
:103C2000630600D4CAE01C9A111D1C911168FF2282
:103C30000A4005940A9B049353460393029600237B
:103C40000193009243463A0059462800FFF76EFA66
:103C5000070027E01026CDE70826CBE70226C9E7B4
:103C600020221443C8E7A30520D4E30550D46306FB
:103C700066D51C9A111D1C911168FF220A40D317AA
:103C8000D118594005940A9B049353460393029616
:103C9000D20F0192009143463A0059462800FFF79F
:103CA00045FA0700119B01331193D3E61C9BDA1DE3
:103CB00007218A43110008311C91116853689C4602
:103CC000DB170C930D930C9A0D9B100048400E903F
:103CD000624653400F930E980F990C9A0D9B801AD1
:103CE00099410E900F9108940A9B079353460693AF
:103CF0000496002305936346DA0F02920090019127
:103D000043463A0059462800FFF76EFA0700C9E714
:103D10001C9A111D1C911268D317D1185940059493
:103D20000A9B0493534603930296D20F019200918B
:103D300043463A0059462800FFF7F8F90700B1E773
:103D4000230605D51C9A111D1C910023D25E96E70F
:103D50001C9A111D1C91126891E71C9BDA1D07210A
:103D60008A43110008311C9108940A9B079353461B
:103D700006930496002305930293136854680093F6
:103D8000019443463A0059462800FFF72DFA0700F0
:103D900088E71C9A111D1C9105940A9B04935346B5
:103DA00003930296002301931368009343463A005D
:103DB00059462800FFF7BAF9070073E723060DD527
:103DC0001C9A111D1C9112681204120C31E7C04696
:103DD0003CCC011080CC0110CCCC01101C9A111DE0
:103DE0001C91126825E746281AD01C9B073307222E
:103DF00093431A0008321C9204940A9A0392524682
:103E000002925C681B680093019443463A0059464D
:103E10002800FFF765FC0700119B0133119319E699
:103E200020231C43E1E7672801D0472802D18023E3
:103E30001B011C43452801D0472801D120231C43E6
:103E40001C9B0733072293431A0008321C920494E8
:103E50000A9A0392524602925C681B68009301948E
:103E600043463A0059462800FFF730FA0700119BF5
:103E700001331193EEE502231A00224092462342B9
:103E80001FD001241C9B1A1D1C927A1C9146187885
:103E900043463A005946A8475346002B16D1119B7A
:103EA000013311934F46D5E5561C43465946202011
:103EB000B847230032005C1C9D42F5D83D00170036
:103EC000E0E701233A002F000A9DF4E74A46A9469D
:103ED0000A9D06E0571C434659462020C847340037
:103EE0003A00661CA542F5D84D469146D7E71C9B83
:103EF0001A1D1C921B6899465346002B00D1013BAA
:103F00004E4601E0013613003278002A02D05A1ED4
:103F1000002BF7D14B46F21A10928023DB002600CB
:103F20001E401C4203D0524501D953461093022330
:103F30001A0022400B92234205D03A0037004C462B
:103F4000A946554620E03A00109B5F46B3462E0036
:103F500006E0551C434639002020B04723002A00C4
:103F60005C1C0A999942F4D835005E46BB46109411
:103F700037004C46A946554606E01D000134561C44
:103F800043465946C84732002078002804D0002F05
:103F9000F4D06B1E002DF0D117004D460B9B002B6B
:103FA00003D1119B0133119354E50A9F109B06E046
:103FB000561C434659462020A847230032005C1C6B
:103FC0009F42F5D81700ECE721231C431C9B1A1DC8
:103FD0001C921B6800930594082304935346039393
:103FE000102302930023019343463A0059462800C8
:103FF000FFF79CF80700119B013311932AE57C1C05
:1040000043463A0059462520A847119B0133119396
:1040100027001FE57C1C43463A005946A847119BE0
:1040200001331193270015E50A4B9A4610E5AA467D
:10403000474502D343465A1E00E03A0043465946DC
:104040000020D047380013B0F0BCBB46B246A946AA
:10405000A046F0BD392F001000B585B00290039145
:104060000121009313004A4202A90248FFF7E2FC33
:1040700005B000BD3B2F001001480421014B18473B
:1040800080080020B5400010014B9B6818470000D5
:104090008008002010B5010018231B881422108806
:1040A000984710BD10B5010018231B8816221088F0
:1040B000984710BDF0B5C64600B507000E000025B4
:1040C0000123984600E00135B5420AD2AC003C1904
:1040D0002068FFF7DFFF20600028F4D10023984616
:1040E000F1E7404680BCB846F0BD0000124A936F2D
:1040F0009B0815D29066D166002905D0FFE7FFE73F
:10410000FFE7516F106F704704B580210906C21791
:104110005140002800D0C84317F012FD002104BD13
:10412000F0B5146E556E576F166FFFF7E3FF146608
:10413000556657671667F0BD000000D0114A936FAF
:104140009B0813D210665166002905D0FFE7FFE7F0
:10415000FFE7516F106F704704B5002801D00020B1
:10416000C04317F0EDFC002104BDC046F0B5146E4D
:10417000556E576F166FFFF7E5FF14665566576764
:104180001667F0BD000000D094464A4A926F92082C
:10419000624601D228E0C046F0B5464E346E756ED8
:1041A000776F366F00F020F89446424A14665566E1
:1041B000576716676246F0BD94463E4A926F920872
:1041C000624601D254E0C046F0B53A4E346E756E88
:1041D000776F366F00F04CF89446364A1466556691
:1041E000576716676246F0BD002B24DB11D000290B
:1041F0003EDA00B5C943404200D1013100F038F841
:10420000C943404200D10131DB43524200D1013366
:1042100000BD002AEBD1002801D1002905D00020E3
:10422000C90FC90701D1C043410800B517F070FCA0
:104230000022002300BD00B500290ADBDB43524207
:1042400000D1013300F014F8C943404200D10131DC
:1042500000BDC943404200D10131DB43524200D18D
:10426000013300F005F8DB43524200D1013300BDB9
:10427000002923D1002B18D1002A0CD0BC460D4FA9
:1042800038667A6600210023FFE7FFE7FFE77A6FD1
:10429000386F67467047002801D00748010000B515
:1042A00017F036FC0022002300BD02000B000020A6
:1042B00000217047000000D0FFFFFFFF002B00D05F
:1042C000BFE0130C28D1002AE7D080B4114F396623
:1042D0007A66FFE7FFE730B4040C7B6F396F1B048D
:1042E00023433B667A66FFE7FFE7FFE7C04684B2F9
:1042F0007B6F3D6F1B0423433B667A66FFE7FFE756
:10430000C04600232C042D0C7A6F386F00196941C8
:10431000B0BC7047000000D0F0B594460025140EE4
:1043200001D112020835140F01D112010435940F86
:1043300001D192000235D40F01D152000135D40BC6
:104340000134254F7C66254C3C660E0C93B2FFE78A
:10435000FFE7FFE73C6F6643360C7703BE467343C7
:10436000DF0B5B04C01AB941130C7343DB18C91A85
:10437000CE086643360CB64493B273431F0F1B013D
:10438000C01AB941130C73431F0B1B05C01AB94166
:10439000860D8F023E436643360C092D24DB520AFC
:1043A0007243801A7703460A6643360C16235B1B5A
:1043B000DE40DF40BF1964466643821B7046043509
:1043C00006330100D940A840C01900D30131A242F0
:1043D00006D20023F0BD0000000000D0FFFFFFFF69
:1043E000121B0130F3D3F1E709277F1BFE4064461F
:1043F000A2B27243801A00D20139220C7243130C0C
:104400001204821A99410B007046043513370100DB
:10441000F940A840801900D30131002B02D1A242FB
:104420000AD2F0BD013000D30131121BFAD2013B98
:10443000F8D1A24200D2F0BD013000D30131121BED
:10444000F7E7F0B51C0C00D080E00CB400251C0A86
:1044500004D11B02160E3343120208351C0B04D183
:104460001B01160F3343120104359C0B04D19B0032
:10447000960F334392000235DC0B02D192185B4158
:1044800001351C00971864410134464F7C66464C48
:104490003C660E0CFFE7FFE7FFE7C0463C6F664354
:1044A000360C7703BE4697B27743C01B00D2013962
:1044B000C01B00D201399FB27743C91BC91B170C1F
:1044C00077437E04FF0B801BB941CE086643360C50
:1044D0000C2D33DBB644120B1F053A431B0B97B26E
:1044E0007743C01B00D201399FB27743C91B170C19
:1044F00077433E043F0C801BB941860D8F023E433B
:10450000664329277F1BFE400C3D7746AF40BF190D
:1045100030BCA2B2ABB272437343801A9941220CF1
:104520007243130C1204801A994102000B000137E8
:10453000001BA941F9D2781E0021F0BD0C277F1B7A
:10454000FE4077467F0BAF40FF19E0E700245D1C7B
:1045500007D0144F7D663966FFE7FFE7FFE7FFE707
:104560003C6F95B29EB265436643401BB141150C4A
:104570001E0C6543664336042F0C3E432D04401B3E
:10458000B141994204D202000B0020000021F0BD8D
:1045900001D19042F7D3801A994101349942F2D364
:1045A000F6E70000000000D0FFFFFFFF4840414059
:1045B000484018B4134B5B68019308BD18B4114B05
:1045C0001B68019308BD94460F4A926F920805D26A
:1045D000624618B40B4BDB68019308BD0A4AF0B57C
:1045E000146E556E576F166F6246FFF7F2FF064A5C
:1045F0001466556657671667F0BD18B4014B9B6883
:10460000019308BDE43E0020000000D0FFB55040FB
:104610004240504059404B40594000E0FFB5154FD3
:104620004C00640D03D0BC4204D10C0314D800200C
:10463000090D09055C00640D03D0BC4204D11C03C4
:104640000AD800221B0D1B0501264B4009D44B4004
:1046500003D58B4200D18242FFBD9942FCD19042EA
:10466000FFBD0B43DB1803431343F5D0C94349187F
:10467000FFBD0000FF07000000B5FFF7CFFF80413E
:1046800000BDC04600B5FFF7C9FF01D9002000BD3D
:10469000012000BD00B5FFF7B9FF01D9002000BD22
:1046A000012000BD00B5FFF7B1FF804100BD012032
:1046B00040054A00121804D85A00121801D80020E8
:1046C000704701207047002070470000002100283B
:1046D00005D17047C1174840401AFAD0C90713B531
:1046E000064B1B6898470CBC441CA2401005120BDB
:1046F0000349091B09051943114310BD70400020EF
:104700001F04000010B54C00620D8023D218DB009E
:10471000D21A5B057E2A10DD9E3A13DACC17090304
:10472000490819435242D140640001341532202A0D
:1047300005DAD0400843604310BD002010BD084694
:10474000604310BDC80FC018013810BD18B4024B2B
:104750005B6A019308BD0000E43E002010B50148EB
:10476000FEF7CCFB70CE011070B513231C78012C22
:1047700014D0012C14DC022C02DC1F4A1F4B9A645B
:104780001F48FFF787FC1F4B186070BD99001E483B
:104790001A4A885001331F2BF8D9EAE70023FAE7B9
:1047A0001A48FFF77FFC05001948FFF77BFC023829
:1047B00003789B007F2B19DD802229000F4800F031
:1047C00013F9022CD7D1134B1A88B5231B029A4236
:1047D00009D1114B1A88114B9A4204D1104B1A88F7
:1047E000104B9A42C7D00020FEF788FB0E4B0F4AB1
:1047F00032210F48FEF7E8FA35480010E43E002069
:104800004C330000704000205D470010534400000E
:104810005346000054380000D838000049460000D4
:104820009C3800005946000088CE011040CF01108E
:10483000DCCE011007B56046002800D100BE01881B
:104840000A0A0230DF2AFAD1C9B2820804D30288E8
:1048500040880004104300E00068024A5050039072
:1048600007BD0000E43E002051434343C9188C4675
:10487000110C83B24B4310B4040C614392B280B26A
:10488000504362431C041B0C001910BC5941130413
:10489000120CC018514161447047000010B5014826
:1048A000FEF72CFB60CF051070B513231E78184857
:1048B000FFF7F8FB0500012E11D0012E09DDAB1E1C
:1048C0001B789B007F2B1DDD80222900114800F002
:1048D0008BF81148FFF7DEFB104B186070BD5422B7
:1048E00001000C4800F080F8002300E001331F2B8A
:1048F000E3D89A00074C1259002AF7D19A000848C9
:104900001051F3E7074B084A42210848FEF75CFACA
:1049100053460000744000204C33000070400020DB
:104920009D48001054CF0110ECCF011088CF01102A
:1049300070B504000A4E300017F042F9200016F05E
:10494000BDFB0500300017F0DBF8002D05D02C1959
:10495000044B9C4201D8280070BD0348FEF7CEFAF4
:10496000301100200000042000D0011070B50500B7
:104970000C000B4E300017F023F92100280016F030
:104980003DFB0500300017F0BBF8002D05D02C19B9
:10499000044B9C4201D8280070BD0348FEF7AEFAD4
:1049A000301100200000042000D0011070B5040078
:1049B000054D280017F004F9200016F089FB2800A7
:1049C00017F09EF870BDC046301100200148042148
:1049D000014B184790080020B5400010014B1B68A0
:1049E0001847000090080020014B5B681847000042
:1049F0009008002010B50300080011001B689847BC
:104A000010BD0000F8B507000D001600437D002B17
:104A100002D0002400200CE0036811002800984711
:104A20002DE03B7D10E0022115483B689847601C53
:104A30000134B44214DA002CF3DD2B19013B1B784E
:104A40000D3B5A425341DBB22A5D0A2AF0D1002BBA
:104A5000EED1A042E7DA211A28183B689847E2E72E
:104A6000B04203DA311A28183B689847002E06DD59
:104A7000AD19013D2B780D3B5A4253413B75F8BDB2
:104A800090D0011070B505000368002B16D00C4BB8
:104A90001C6805E0290004C92000FFF7B3FF246962
:104AA000002C09D02368002BF9D0064B1B68002B83
:104AB000F0D0A342F3D1EDE700232B6070BDC046D8
:104AC000E0260020F826002070B505000C000B68D9
:104AD000802B05D021684B1C23606418257170BDA4
:104AE0000800FFF7CFFFF5E710B5FDF739FC02002E
:104AF0000B1E0BDB0D48002112184B41002B0BDB6A
:104B0000002B0DDB0A4817F04BF810BD094B0A4A81
:104B10003F210A48FEF758F901225242084BEFE7BD
:104B2000044B054A3F210548FEF74EF940420F006D
:104B3000381100208CC2011078D00110A8C20110D9
:104B4000FFFFFF7F10B5024816F0DAFF10BDC04628
:104B500038110020F0B5CE46474680B583B0060038
:104B60000D0090461C00FFF7BFFF81466B1C05D06F
:104B7000002C08D0194F1A4B1C6807E0300016F0C3
:104B80000FFE0500F4E7174FF5E72469002C17D056
:104B90002368002BF9D0144B1B68002B01D0A342D3
:104BA000F3D12A0031002000B8474346002BECD057
:104BB0006B46D91D0A230B7001222000B847E4E799
:104BC0004B46002B07D16B1E9D41E8B203B0C0BC21
:104BD000B946B046F0BDFFF7B5FFF4E7F549001060
:104BE000E0260020054A0010F826002010B5064BEC
:104BF0001C6801E098472469002C03D06368002BEF
:104C0000F8D1F8E710BDC046E026002070B50500D9
:104C100016F0C6FD04000023012201002800FFF762
:104C200099FFFFF7E3FF200070BD000070B5A2B050
:104C300004000E00FFF758FF050000230193330026
:104C4000220001A90848FFF707FA040001A8FFF7AE
:104C500019FFFFF7CBFF002D02D1200022B070BD5D
:104C6000FFF770FFF9E7C046C94A00100FB400B55E
:104C700083B004A901C90191FFF7D8FF03B008BCB4
:104C800004B018470020704703BD10B50400FCF7BE
:104C900039FCA04710BD000010B5FCF767F8040010
:104CA000054B1B68002B03D02000FCF76BF810BDF0
:104CB0000148FCF76BFCF7E7203D0020D0231B06E2
:104CC0001B6D9B07FAD5D0231B06586540BF704764
:104CD000F8B5040016001F00FDF742FB02000B1E92
:104CE00008DB92197B41002B0ADB002B0CDB100048
:104CF000190014E0174B184A3F211848FEF764F8D2
:104D000001225242164BF0E7124B134A3F2113483F
:104D1000FEF75AF8002300E00023002B18D1D0231F
:104D20001B061B6D9B070DD40E4B5B6A9942F3D893
:104D30000C4EB66A864203D29942EBD00123ECE7CF
:104D40000123EAE7D0231B065C6540BF0120F8BDC4
:104D50000020FCE78CC20110D4D10110A8C20110C0
:104D6000FFFFFF7F0040054000E020BFD0231B066F
:104D70001B6DDB07F9D5D0231B06986D704700002B
:104D8000F8B506000F001500FDF7EAFA02000B1E49
:104D900008DB92197B41002B0ADB002B0CDB140093
:104DA000180014E0184B194A3F211948FEF70CF877
:104DB00001225242174BF0E7134B144A3F2114488B
:104DC000FEF702F8002300E00023002B19D1D023C6
:104DD0001B061B6DDB070ED420BF0F4B5B6A98428E
:104DE000F2D80D4EB66AA64203D29842EAD0012309
:104DF000EBE70123E9E7D0231B069B6D2B60012025
:104E0000F8BD0020FCE7C0468CC20110D4D10110CF
:104E1000A8C20110FFFFFF7F00400540F0B5CE465D
:104E2000474680B583B0070014001D00D0231B0641
:104E30001B680F22914699444846FCF789F8804642
:104E4000002824D1FDF78CFA02000B1E24DB200081
:104E50002900801A994102000B1E29DB3800FFF758
:104E600037FFFDF77DFA02000B1E1BDB2000290037
:104E7000801A994100291BDB0023019301AAFFF747
:104E80007FFF061E14D0019BBB42DBD111E0002145
:104E90004846FCF779F8D5E70D4B0E4A3F210E48FE
:104EA000FDF792FF0A4B0B4A3F210B48FDF78CFFA1
:104EB00000264346002B05D1300003B0C0BCB946E4
:104EC000B046F0BD01214846FCF75EF8F4E7C04665
:104ED0008CC20110D4D10110A8C2011070B5060017
:104EE0000D00FFF7D9FE32002B000E4816F050FEE1
:104EF000041E0ED00C4B1B78002B0CD132002B0063
:104F00000A48FFF78BFF0400074B1870054816F09E
:104F1000F7FD200070BD064B064AF7210648FDF755
:104F200053FFC046203D0020D54400201E83A873B7
:104F300094D001108CD10110ACD0011070B50600D6
:104F40000D00164B1B68002B19D002000B001348F4
:104F500016F01EFE041E10D0114B1B78002B15D02E
:104F600032002B000F48FFF759FF041E02D00C4BF4
:104F700000221A70094816F0C3FD200070BD0821F8
:104F8000094B0A4AFF310A48FDF71EFF0C21094B65
:104F9000064AFF310648FDF717FFC046203D0020B6
:104FA000D5440020E17C578C10D1011068D101104C
:104FB000ACD0011038D10110F0B587B004000D005D
:104FC00017000F20FBF7C4FF060000210F20FBF79E
:104FD000DBFF0023009301930133029303970495B1
:104FE0000594002500E00025AB006A469C58002C83
:104FF00012D02000FFF762FEFFF7B6FE8442F2D126
:105000000135052DF0D931000F20FBF7BDFF07B0AA
:10501000F0BDD0231B069B6DD0231B061B6DDB0749
:10502000F7D440BFE5E7000010B50B00910711D1A0
:1050300003218A439A1811000C39086010000838BF
:105040000360043A064B1360064B9A680648FFF764
:10505000B3FF10BD054B064A76210648FDF7B4FEA6
:105060008B4C001000ED00E0894C00104CD1011079
:10507000B0D10110ACD0011010B5064A064B9A42CF
:1050800005D3110080221201FFF7CEFF10BD0121D0
:105090004942F7E7000804200000042070B5FFF73C
:1050A000FBFDD0231B061C6825000F350549280091
:1050B000FBF782FF01212800FBF766FF024B01226C
:1050C0001A5570BDA1040020283D002070B50400D1
:1050D0000D00FDF745F902000B1E0ADB2000290038
:1050E0008018594100290ADB00290CDBFFF7F6FE86
:1050F00070BD084B084A3F210848FDF765FE0120B6
:1051000040420749F0E7034B034A3F210348FDF7BC
:105110005BFEC0468CC20110D4D10110A8C20110A0
:10512000FFFFFF7F70B504000D00FDF719F90200C5
:105130000B1E0ADB200029008018594100290ADBD8
:1051400000290CDBFFF7FAFE70BD084B084A3F212F
:105150000848FDF739FE012040420749F0E7034BBC
:10516000034A3F210348FDF72FFEC0468CC20110C1
:10517000D4D10110A8C20110FFFFFF7F014B185CC2
:105180007047C046283D002010B5104A104B121839
:105190004B419900900F0843990F504059400D4AD8
:1051A0000D4BFFF761FB03004A01C00E1043CA0E0E
:1051B00058405140094A0A4BFFF756FB03004A008A
:1051C000C00F1043CA0F5840514010BD157C4A7F94
:1051D000B979379EB9E5E41C6D4758BFEB1131131F
:1051E000BB49D094F0B5C64600B584B002000B00B0
:1051F00013498C461BE0614601C900908C46002192
:105200000191910E9F010F43960100980199801919
:10521000794102900391110C1D040D43140402986E
:10522000039900196941801A994102000B00054950
:105230008C45E0D91000190004B080BCB846F0BD20
:10524000001C0420FF1F0420F0B5CE46474680B561
:1052500083B080460368446800930194030080682B
:10526000D96801E0FDF77CF8009C019D23002B43E9
:1052700002D103000B43F5D0009C019DA60FAB00AB
:105280003343A2002E002500AD185E416B0E9946F7
:10529000F3019C464B46624613431F00730EEA011E
:1052A00013431E005B0F9C46FB0064462343F20041
:1052B00092197B41009C019D60406940260A2F069F
:1052C0003E432D0A009C24062C43444035004D40AB
:1052D000070C0E043E4307047C407540464634608C
:1052E00075604C01C50E2C434001C90E0843B460E3
:1052F000F0601000190003B0C0BCB946B046F0BD64
:10530000F0B5DE4657464E464546E0B583B00190BF
:10531000574B9B69DB0410D5564BDA6BE0231340E7
:10532000402B0AD0EFF305839846019B002B0AD04F
:1053300000239946002400258AE04F4B4F4A8121E3
:105340004F48FDF741FD4F4B4C4A86214C48FDF735
:105350003BFD4D4B18685968FCF78CFEEFF3108647
:1053600072B64A4B1B68002BFBD0BFF35F8F464BD6
:1053700019685A688A4516D0BFF35F8F434B0022E5
:105380001A6086F310885B46002B5ED13E4B1A688C
:1053900092465F684346002BDBD03B4B1868596848
:1053A000FCF7EAFFDAE7BA42E6D12000290000194B
:1053B00069412F4BDA690123134003431C000D00A0
:1053C000FCF7CEFF02000B1E23DB0A20002112187F
:1053D0004B41002B23DB002B25DB2B490A604B6064
:1053E00001994B1E4B452DD1294A20235B42CB18F6
:1053F0001FD4116899400B00126801998A4022431A
:105400002B4314001D00224B1C605D6001239B4652
:10541000B2E7204B204A3F212048FDF7D5FC01226E
:1054200052421F4BD7E71B4B1B4A3F211B48FDF73E
:10543000CBFC202301981B1A1168D9405368834084
:105440000B43D9E701239B4696E701239C46E144A1
:10545000019B994502D200239B4697E72000290033
:1054600003B0F0BCBB46B246A946A046F0BDC0465C
:105470000000064000800040ECD1011030D3011044
:10548000B4D201105CC10110E0120020300100D044
:10549000701100208CC2011018D30110A8C2011095
:1054A000FFFFFF7F10B588B03B4C20686168FFF7B5
:1054B00099FE20606160FFF767FE049B5840059BE2
:1054C000019359400490059102A800F011F9029847
:1054D0000399FFF759FE069B01935840079B0193E0
:1054E0005940069007914020FFF70AFFFFF74CFE56
:1054F000049B5840059B0193594004900591FCF78B
:105500002FFFFFF741FE069B01935840079B019335
:10551000594006900791EFF3108472B61F4B1B6839
:10552000002BFBD0BFF35F8F1D4B1B78002B24D1CA
:10553000032B09D85A1CD2001A498C46624452687F
:105540001F2A03D00133F3E701235B425A1C1DD00D
:10555000DBB2154A13700133DB00124A94466344F0
:1055600005225A6004A8FFF76FFE102204A90F4815
:10557000FFF73AFA0A4B01221A70BFF35F8F074B0D
:1055800000221A6084F3108808B010BD084B094A45
:10559000E9210948FDF718FC58110020300100D01E
:1055A000D844002000000340C844002060110020BF
:1055B0000CD3011050D30110B4D2011070B586B0D5
:1055C0003E4B1B78002B00D16EE010223C4902A814
:1055D000FFF70AFA3B4B1C78E4B2FCF7C1FEFFF779
:1055E000D3FD029B5840039B0193594002900391C5
:1055F0000120FFF785FEFFF7C7FD049B019358408C
:10560000059B01935940049005912F4B1A78531C28
:10561000DB002E4958582E4B984248D00021FFF706
:10562000B3FD029B5840039B0193594002900391A4
:10563000EFF3108672B6274B1B68002BFBD0BFF32D
:105640005F8F204B1B78DBB2A34213D01C4B029917
:105650001A685140039A019258684240029103929D
:105660009A68DB68049901914A40059901914B4081
:105670000492059302A8FFF7E7FD05000C00102235
:1056800002A90F48FFF7B0F90E4A13780133DBB2D5
:105690001370BFF35F8F0F4B00221A6086F31088E0
:1056A0002800210006B070BDFFF7FCFE8DE7013237
:1056B000D2000B000021D150B0E7C046D8440020F2
:1056C00060110020C9440020C844002000000340AD
:1056D000FFFFFF00300100D010B5FFF76FFF10BDD6
:1056E00010B5024800F00CF810BDC046583E00202E
:1056F00010B508220149FFF777F910BD583E002088
:1057000070B588B0040004AD00260496092200217B
:1057100005A8FFF763F900960922002101A8FFF709
:105720005DF94B232B700D226946280016F0E0F935
:10573000002304E05A1D69468A5CE2540133072BBA
:10574000F8DD08B070BD00000523CB56002B01DB4F
:10575000934211D1094B9C4660444342584180001A
:10576000074BC058097901238B40013B93401840F7
:1057700043425841C0B270470020FCE70000D0AF60
:105780004413002070B50A79202A19D8174B9C467B
:105790006044434258418000154BC4580123934054
:1057A000013B497949B2002910DB08002025AA1ADB
:1057B000914218DC8B401C4201D00120404270BD58
:1057C0000C4B0D4A40210D48FDF7FEFA2020801AAF
:1057D000002805DB1A0082401442F0D00138F7E7B8
:1057E00001204042EBE701204042E8E70000D0AF53
:1057F0004413002010D5011034D601103CD50110FF
:1058000070B505000C001600FFF79EFF002801D0C0
:10581000002007E01548FDF771FB831912339B0048
:105820005A510130237983420FD9237861780902D4
:105830001943A27812041143E3781B060B4342007C
:105840009A5A530BE9D19219E7E701229A401300C3
:10585000013B074A944665446A425541B340054AB4
:10586000AD00A9580B43AB5070BDC04698D5011090
:105870000000D0AF4413002010B5054B9C46604497
:1058800043425841800041180248FBF7C7FA10BD57
:105890000000D0AFCB44002010B582B00A4B9C462C
:1058A0006044434258418400E31C084A00922200AD
:1058B0000748FBF78AFA844202DC001B02B010BDE5
:1058C00001204042FAE7C0460000D0AFACD501103D
:1058D000CB44002070B504000E00FBF747FA05002A
:1058E00031002000FFF74EFF441C631E9C41E4B2D0
:1058F0002800FBF747FA200070BD0000F8B505004E
:105900000E00FBF733FA070031002800FFF73AFFDB
:10591000041E09DB020031002800FFF771FF380088
:10592000FBF730FA2000F8BD0148FDF7E7FAC04662
:1059300098D5011070B504000B7901259D40013DFB
:105940009540FBF713FA0C4BE3185A425341990068
:105950000A4A8A5829001140A94206D19B00AA434D
:1059600006495A50FBF70EFA70BD054B054A8A21CD
:105970000548FDF729FAC0460000D0AF44130020C7
:10598000D0D5011020D601103CD50110F0B5D64677
:105990004F464646C0B507000E0090461D004B001E
:1059A0005A18D20082181100DC3109688A46CC32BC
:1059B000126891469B19DB00C833C3180433C02218
:1059C00092011343802292021A6017E02800FEF72A
:1059D0005BFB42018023DB0413437400A419E40041
:1059E0003C192200DC3213604246C24001231A40B7
:1059F0000C4B1343D83423606B1E1D40002DE5D1A2
:105A000071008B19DB00FB18DC3352461A608919D0
:105A1000C9007F18CC374B463B60E0BCBA46B14664
:105A2000A846F0BD80E00000F0B5C64600B506AC63
:105A300025784C006618F60086193700DC373F6879
:105A4000BC46CC363668B0466418E400C834041945
:105A50000434C026B60134438026B6022660002DE9
:105A600001D01F2614E0002612E05401A0256D0588
:105A700025434C006418E40004192700DC373D601E
:105A8000114D3543D8342560053B05321F24224093
:105A9000052BEAD89B06520113434C006218D20032
:105AA00082181500DC352B60074B1E43D832166078
:105AB00063462B606118C9004018CC304346036030
:105AC00080BCB846F0BDC04680E0000010B50100C3
:105AD0000148FBF7A3F910BDB044002000B583B026
